:020000040800F2
:10000000C008002069020008F112000891120008DF
:10001000ED120008190300084B280008000000003A
:10002000000000000000000000000000A51900080A
:100030007903000800000000C5160008CD1C000868
:10004000830200088302000883020008830200087C
:10005000830200088302000883020008830200086C
:10006000830200088302000883020008830200085C
:10007000830200088302000883020008830200084C
:10008000830200088302000883020008830200083C
:10009000830200088302000883020008830200082C
:1000A000830200088302000883020008830200081C
:1000B000391D00088302000883020008830200083B
:1000C00083020008830200088302000883020008FC
:1000D000830200088302000875220008ED2500084D
:1000E00083020008830200088302000883020008DC
:1000F00083020008830200088302000883020008CC
:100100008302000883020008551F000883020008CC
:1001100083020008830200088302000883020008AB
:10012000830200088302000883020008830200089B
:10013000830200088302000883020008830200088B
:10014000830200088302000883020008830200087B
:10015000830200088302000883020008830200086B
:10016000830200088302000883020008830200085B
:10017000830200088302000883020008830200084B
:10018000830200088302000800F002F800F05CF827
:100190000AA090E8000C82448344AAF10107DA45E2
:1001A00001D100F051F8AFF2090EBAE80F0013F0D8
:1001B000010F18BFFB1A43F0010318478C6F0000B2
:1001C000AC6F00000A444FF0000C10F8013B13F034
:1001D000070408BF10F8014B1D1108BF10F8015BA0
:1001E000641E05D010F8016B641E01F8016BF9D193
:1001F00013F0080F1EBF10F8014BAD1C0C1B09D1EA
:100200006D1E58BF01F801CBFAD505E014F8016B5B
:1002100001F8016B6D1EF9D59142D6D370470000ED
:100220000023002400250026103A28BF78C1FBD8FF
:10023000520728BF30C148BF0B6070471FB506F09A
:1002400078FF1FBD10B510BD00F033F81146FFF761
:10025000F5FF03F0B5FA00F051F803B4FFF7F2FF31
:1002600003BC02F0F4FA000009488047094800473F
:10027000FEE7FEE7FEE7FEE7FEE7FEE7FEE7FEE756
:10028000FEE7FEE704480549054A064B70470000B3
:10029000D11C000889010008C0020020C00800200D
:1002A000C0040020C00400207047704770477047AA
:1002B0007047754600F02CF8AE4605006946534677
:1002C00020F00700854618B020B5FFF7DBFFBDE83A
:1002D00020404FF000064FF000074FF000084FF0AD
:1002E000000B21F00701AC46ACE8C009ACE8C0093E
:1002F000ACE8C009ACE8C0098D46704710B50446AB
:10030000AFF300802046BDE81040FFF7A6BF000015
:10031000004870476002002000BFFEE71CB50121C5
:10032000042001F0D1F941F61040009001208DF831
:10033000040000208DF8060003208DF80500012040
:100340008DF8070069460B4800F0F0FD4FF480611E
:10035000084800F061FE4FF40061064800F05CFEC2
:100360004FF48051034800F057FE1021014800F07F
:1003700053FE1CBD000802407047000010B5324813
:10038000007830B1012817D0022835D003284DD18C
:1003900046E000202D49086002F052FF2B4800681B
:1003A000012808D15021632005F024FF2648007859
:1003B000401C2549087039E000202449086002F0FB
:1003C00073FA22480068012815D1214890ED041BDA
:1003D000B0EE410AF0EE610A51EC100B06F04AFB58
:1003E0001C4908605021632005F004FF164800787E
:1003F000401C1549087019E00020144908600220CB
:10040000154908701348006803F0A4FB0F48006802
:10041000012804D10C480078401C0B49087005E005
:1004200000200D49087004F0E5FF00BF00BF06483A
:100430000078032807D100200349087007480068A6
:10044000401C0649086010BDE8000020B4000020F0
:100450008001002084000020BC000020D400002087
:1004600010B562480078092818D2DFE800F00518B6
:10047000283B4B586B7FAB0000205D49086002F0C1
:10048000DFFE5B480068012808D14121632005F0A8
:10049000B1FE56480078401C5449087098E000208E
:1004A00053490860722005F0B9FB514800680128E3
:1004B00004D14E480078401C4C49087088E0002068
:1004C0004B49086002F080FB49480068012808D1C8
:1004D0003221632005F08EFE44480078401C4349D9
:1004E000087075E0002042490860012004F070FAAD
:1004F0003F480068012804D13C480078401C3B4933
:10050000087065E04121632005F074FE00F0C2FE32
:1005100020B136480078401C3449087058E035480E
:1005200090ED041BB0EE410AF0EE610A51EC100BA5
:1005300006F0A0FA3049086001223221084603F093
:1005400089F845E000202A49086004202B490870FA
:100550002948006803F0FEFA25480068012804D104
:1005600022480078401C2149087031E000202049D1
:10057000086023480078042802D10846006848B182
:100580001F48007840B91E484078042804D1184814
:10059000006808B901F07EFA15480068012804D106
:1005A00012480078401C114908701548007804284A
:1005B00007D01348007820B10C480078401C0B4944
:1005C000087005E000200D49087004F013FF00BF1B
:1005D00000BF06480078082807D1002003490870AA
:1005E00008480068401C0749086010BDE80000206A
:1005F000B40000208001002084000020BC00002006
:1006000000000020D400002010B5744800780D28A8
:100610001AD2DFE800F0071A2F354958656B7C893C
:100620009CB0CF0000206E49086002F009FE6C48C3
:100630000068012808D15021632005F0DBFD6748E0
:100640000078401C65490870BAE000210A2005F0D6
:10065000D1FD322003F0EEF96249087008460078B7
:10066000012806D104F04EFF5C480078401C5B492D
:100670000870A5E001223221C82002F0EBFF9FE0C4
:10068000002057490860722005F0C8FA54480068F5
:10069000012808D15021632005F0ACFD4F480078B7
:1006A000401C4E4908708BE000204D49086002F064
:1006B0003BFB4B480068012804D148480078401CA7
:1006C000464908707CE04121632005F093FD00F06D
:1006D000E1FD20B141480078401C404908706FE0BE
:1006E00001223221084602F0B5FF69E000203C49B2
:1006F000086001216C2004F019FF394800680128C6
:1007000004D136480078401C3449087058E0412133
:10071000632005F06FFD00F0BDFD20B12F4800788B
:10072000401C2E4908704BE02F4890ED041BB0EEA2
:10073000410AF0EE610A51EC100B06F09BF92B49CF
:10074000086001225021322002F084FF38E00020AE
:10075000234908600520264908702448006803F0F2
:10076000F9F91F480068012804D11C480078401C92
:100770001A49087024E00020194908601D48407893
:10078000052804D10846006808B901F083F9144827
:100790000068012804D111480078401C0F490870F6
:1007A00014484078052804D00C480078401C0B49B8
:1007B000087005E000200E49087004F01BFE00BF21
:1007C00000BF064800780C2807D1002003490870B4
:1007D00009480068401C0849086010BDE800002076
:1007E000B4000020C500002080010020840000200B
:1007F000BC00002000000020D400002010B55E489E
:100800000078092818D2DFE800F005182D3343508E
:100810006377A30000205949086002F011FD574892
:100820000068012808D15021632005F0E3FC5248FC
:100830000078401C5049087090E000210A2005F023
:10084000D9FC322003F0F6F84D49087008460078CC
:10085000012806D104F056FE47480078401C46495E
:1008600008707BE001226421C82002F0F3FE75E0ED
:10087000002042490860022004F0AAF83F480068BE
:10088000012804D13C480078401C3B49087065E0D1
:100890004121632005F0AEFC00F0FCFC20B136489D
:1008A0000078401C3449087058E0364890ED041B2D
:1008B000B0EE410AF0EE610A51EC100B06F0DAF8E6
:1008C0003149086001223221084602F0C3FE45E0AA
:1008D00000202A49086003202C4908702A48006833
:1008E00003F038F925480068012804D1224800782F
:1008F000401C2149087031E000202049086024484C
:100900000078032802D10846006848B120480078E2
:1009100040B91A48006828B91D484078032801D119
:1009200001F0B8F815480068012804D11248007891
:10093000401C1149087016480078032807D0144855
:10094000007820B10C480078401C0B49087005E085
:1009500000200E49087004F04DFD00BF00BF06489E
:100960000078082807D1002003490870094800686A
:10097000401C0849086010BDE8000020B4000020B9
:10098000C50000208001002084000020BC00002061
:1009900000000020D400002010B5714800780C2819
:1009A00019D2DFE800F0061931373D4758657596D2
:1009B000AAC900206B49086002F042FC694800683F
:1009C000012808D15021632005F014FC6448007808
:1009D000401C63490870B5E000210A2005F00AFCBC
:1009E000322003F027F86049087008460078012893
:1009F00009D104F087FD00205C4908605848007860
:100A0000401C574908709DE00122C821642002F073
:100A100021FE97E00122C821642002F01BFE91E034
:100A20004121632005F0E6FB4D480078401C4C490D
:100A3000087087E000204B49086002216C2004F018
:100A400075FD48480068012804D145480078401CDD
:100A50004349087076E03C21632005F0CBFB06207B
:100A6000434908703E480078401C3D49087069E0E1
:100A700000203C490860012003F034FE394800683A
:100A8000012804D136480078401C3549087059E0E7
:100A900000203449086001216C2004F093FE3148A5
:100AA0000068012814D1334890ED041BB0EE410AD0
:100AB000F0EE610A51EC100B05F0DCFF2E490860E6
:100AC00000202B49087026480078401C24490870F3
:100AD00038E0002023490860062025490870264890
:100AE000006803F037F81F480068012804D11C484B
:100AF0000078401C1A49087024E000201949086059
:100B00001E484078062804D10846006808B900F05D
:100B1000C1FF14480068012804D111480078401C26
:100B20000F49087015484078062804D00C48007812
:100B3000401C0B49087005E000200D49087004F0C6
:100B400059FC00BF00BF064800780B2807D10020E1
:100B5000034908700A480068401C0949086010BD34
:100B6000E8000020B4000020C5000020E4000020C0
:100B7000BC00002080010020840000200000002034
:100B8000D400002010B57F4800780E281AD2DFE884
:100B900000F0071A2B384B5B686E7F8C92AFC6E56E
:100BA00000207949086002F04BFB77480068012873
:100BB00008D14121632005F01DFB72480078401CDC
:100BC00070490870D0E000206F49086003216C2054
:100BD00004F0ACFC6C480068012804D16948007836
:100BE000401C68490870BFE006206849087032213F
:100BF000632005F0FFFA63480078401C61490870E3
:100C0000B2E04121632005F0F5FA00205E4908605A
:100C100001F0DAFF5C480068012804D159480078E7
:100C2000401C584908709FE03221632005F0E2FA29
:100C30005748007838B90020544908705148007866
:100C4000401C504908708FE04121632005F0D2FA22
:100C500000F020FB20B14B480078401C4949087047
:100C600082E001227821192002F0F4FC7CE00020CF
:100C7000454908600121722004F0A4FD4248006843
:100C8000012804D13F480078401C3E4908706BE0C1
:100C90004121632005F0AEFA00F0FCFA20B139489A
:100CA0000078401C374908705EE0012232210F2095
:100CB00002F0D0FC58E0002033490860042003F023
:100CC00087FE31480068012811D1324890ED041B9D
:100CD000B0EE410AF0EE610A51EC100B05F0CAFECD
:100CE0002D49086027480078401C264908703BE0E1
:100CF000002025490860072024490870264800681C
:100D000002F028FF20480068012807D100201F4971
:100D100008701C480078401C1A49087024E0002024
:100D2000194908601D488078072804D108460068E2
:100D300008B900F0AFFE14480068012804D111483A
:100D40000078401C0F49087014488078072804D0A8
:100D50000C480078401C0B49087005E000200B4946
:100D6000087004F047FB00BF00BF064800780D285C
:100D700007D100200349087009480068401C084951
:100D8000086010BDE8000020B4000020BC00002076
:100D900008000020800100208400002000000020C6
:100DA000D400002010B55848007807281AD2DFE890
:100DB00000F0041A2D43607796000021042005F00E
:100DC00019FA4FF4967002F035FE50490870084643
:100DD0000078012806D104F095FB4B480078401CB0
:100DE0004949087081E04121632005F003FA0020A1
:100DF0004749086001F0E8FE45480068012804D131
:100E000041480078401C404908706EE03C21632056
:100E100005F0F0F93F4800783E49497808443D49DB
:100E2000897808443B49C978084420B93648007895
:100E3000401C3549087000BF002035490860022079
:100E400003F0C6FD32480068012811D1324890ED08
:100E5000041BB0EE410AF0EE610A51EC100B05F0F4
:100E600009FE2E49086028480078401C2649087071
:100E70003BE00020264908600820294908702748DF
:100E8000006802F067FE22480068012807D10020B0
:100E9000234908701C480078401C1B49087024E056
:100EA00000201B4908601F488078082804D10846A4
:100EB000006808B900F0EEFD15480068012804D16B
:100EC00011480078401C104908701648807808289E
:100ED00004D00D480078401C0B49087005E0002044
:100EE0000F49087004F086FA00BF00BF064800787A
:100EF000062807D10020044908700B480068401CF0
:100F00000949086010BD0000E8000020C50000206D
:100F1000B400002008000020800100208400002090
:100F2000BC00002000000020D4000020F0B50A46DC
:100F300000210023002400BF3DE0012505FA01F354
:100F4000156805EA03049C4234D105684F00032666
:100F5000BE40B543056015794E00B540066835437F
:100F600005601579012D02D01579022D16D18568FD
:100F70004F000326BE40B543856055794E00B5400D
:100F8000866835438560456801268E40B5434560D7
:100F9000456896798E40B6B235434560C5684F00C6
:100FA0000326BE40B543C560D5794E00B540C6683E
:100FB0003543C560491C1029BFD3F0BDF0B50023EF
:100FC00000244D07ED0E02FA05F3CE1000F12005C6
:100FD00055F826504E07F70E0F26BE40B543CF10EA
:100FE00000F1200646F82750CE1000F1200555F8F4
:100FF000265045EA0304CE1000F1200545F82640AE
:10100000F0BD0246002013690B400BB1012000E047
:1010100000207047418370470183704710B55148E5
:10102000007802282ED150480078032803D14E487A
:101030000078042826D04FF4FA7002F00BFD4B49DB
:10104000087008460078012805D16B21484801F056
:10105000F8FB04F061FA40F2DC5002F0EBFC454989
:10106000087008460078012807D03F480078032818
:1010700003D03D480078042804D104F043FA01204D
:101080003D49086037480078032803D03548007888
:1010900004282ED134484078052803D132484078BE
:1010A000062826D04FF47A7002F0D4FC2F4908703D
:1010B00008460078012805D16B212D4801F0C1FBBD
:1010C00004F02AFA40F6B83002F0B4FC294908705E
:1010D00008460078012807D023484078062803D026
:1010E00021484078052804D104F00CFA0120224957
:1010F00008601C480078052803D01A4800780628A4
:101100002ED119488078072803D1174880780828FD
:1011100026D04FF47A7002F09DFC144908700846FE
:101120000078012805D16B21114801F08AFB04F0F9
:10113000F3F940F6B83002F07DFC0E49087008461D
:101140000078012807D008488078062803D0064890
:101150008078052804D104F0D5F9012006490860FB
:1011600010BD0000BC00002000000020C6000020D0
:1011700000480040C5000020DC0000201CB5012113
:10118000084600F0A1FA49F6F300009000208DF81F
:10119000040003208DF8050001208DF80700694642
:1011A0003648FFF7C3FE0121042000F08DFA42F219
:1011B0000F00009000208DF8040003208DF805003A
:1011C00001208DF8070069462D48FFF7AFFE012189
:1011D000082000F079FA7B20009000208DF80400B0
:1011E00003208DF8050001208DF807006946254889
:1011F000FFF79CFE0121102000F066FA4FF44070CA
:10120000009000208DF804008DF8060003208DF872
:10121000050001208DF8070069461B48FFF786FE90
:101220000121022000F050FA0420009001208DF8E6
:10123000040000208DF8060003208DF80500012031
:101240008DF8070069461148FFF770FE0121102054
:1012500000F03AFA4FF48070009000208DF80400FE
:101260008DF8060003208DF8050001208DF8070099
:1012700069460548FFF75AFE1CBD00000000024009
:1012800000080240000C024000100240000402402E
:1012900000BFFEE70748C07806490979084438B915
:1012A0000548C07804490979084408B90120704705
:1012B0000020FCE708000020100000201CB50121E0
:1012C000084600F001FA0120009000208DF804008B
:1012D00003208DF8050001208DF8070069460248BB
:1012E000FFF724FE1CBD00000000024000BFFEE727
:1012F0007047000070B5002100230F22C4781CB392
:10130000174C246804F4E064C4F5E064C4F30721D6
:10131000C1F10404E3B20A4144789C40E1B284780C
:10132000144021430C07210E0E4C057861550478BA
:1013300004F01F050124AC4005786D11AD0005F1E6
:10134000E025C5F8004109E0047804F01F050124F8
:10135000AC40054D0678761145F8264070BD00007A
:101360000CED00E000E400E080E100E00249014310
:10137000024A1160704700000000FA050CED00E021
:1013800070B5002419E004F1B001C8B2002100F0EA
:10139000BDF80021084600F0B9F80021102000F047
:1013A000B5F8002505E00121002000F0AFF8681C29
:1013B000C5B2802DF7DB601CC4B2082CE3DB70BD26
:1013C0001CB50121042000F07FF94020009001208D
:1013D0008DF8040000208DF8060003208DF805002C
:1013E00001208DF8070069464648FFF79FFD00F091
:1013F0000FFA4FF480414448FFF70CFE4FF4FA70A7
:1014000001F050FC4FF480413F48FFF705FEC82033
:1014100001F048FC0021AE2000F078F800210846D9
:1014200000F074F80021102000F070F80021402036
:1014300000F06CF80021812000F068F80021CF2036
:1014400000F064F80021A12000F060F80021C8201D
:1014500000F05CF80021A62000F058F80021A82038
:1014600000F054F800213F2000F050F80021D32074
:1014700000F04CF80021084600F048F80021D52083
:1014800000F044F80021802000F040F80021D9202D
:1014900000F03CF80021F12000F038F80021DA20BB
:1014A00000F034F80021122000F030F80021DB2099
:1014B00000F02CF80021402000F028F80021202026
:1014C00000F024F80021022000F020F800218D20F7
:1014D00000F01CF80021142000F018F80021A420CE
:1014E00000F014F80021A62000F010F80021AF2031
:1014F00000F00CF80021AF2000F008F8FFF740FFE3
:101500001CBD0000000802400004024070B5054602
:101510000C4624B140210D48FFF77EFD03E0402139
:101520000A48FFF777FD4FF480510948FFF772FD35
:10153000284600F0E3F94FF480510548FFF76CFDB1
:1015400040210248FFF768FD70BD0000000802401E
:101550000004024080ED020AC0ED030A80ED041A87
:1015600070470000F0EE400AC0ED000A90ED000A5E
:10157000B7EE081AB4EEC10AF1EE10FA08DA90EDEF
:10158000000ABFEE081AB4EEC10AF1EE10FA08D84C
:1015900090ED060A90ED001A30EE010A80ED060A81
:1015A0000BE09FED450A80ED060A90ED070A90EDED
:1015B000001A30EE010A80ED070A90ED060A9FED51
:1015C0003F1AB4EEC10AF1EE10FA03DB9FED3B0ABD
:1015D00080ED060A90ED060A9FED391AB4EEC10AB5
:1015E000F1EE10FA03D89FED360A80ED060A90ED71
:1015F000070AB3EE0E1AB4EEC10AF1EE10FA03DBDD
:10160000B3EE0E0A80ED070A90ED070ABBEE0E1A44
:10161000B4EEC10AF1EE10FA03D8BBEE0E0A80ED6B
:10162000070A90ED000AB7EE081AB4EEC10AF1EE0F
:1016300010FA21D890ED000ABFEE081AB4EEC10AE4
:10164000F1EE10FA18DB90ED020A90ED001A20EE90
:10165000010A90ED031AD0ED071A01EE210A90ED70
:10166000001AD0ED011A31EE611AD0ED041A01EE24
:10167000810A80ED050A17E090ED020A90ED001A4C
:1016800020EE010A90ED031AD0ED061A01EE210AB0
:1016900090ED001AD0ED011A31EE611AD0ED041A66
:1016A00001EE810A80ED050A90ED000A80ED010A45
:1016B00090ED050A70470000000000000000C842DD
:1016C0000000C8C27047000029B1064A12680243F0
:1016D000044B1A6004E0034A12688243014B1A600B
:1016E000704700003038024029B1064A12680243B0
:1016F000044B1A6004E0034A12688243014B1A60EB
:10170000704700004038024029B1064A126802437F
:10171000044B1A6004E0034A12688243014B1A60CA
:101720007047000020380240F0B50021002200245C
:10173000022500260223324F3F6807F00C0121B139
:10174000042905D0082937D105E02E4F076036E07F
:101750002D4F076033E02A4F3F1F3F68C7F3805685
:10176000274F3F1F3F6807F03F036EB1264FB7FB7F
:10177000F3F7DFF88CC0ACF1040CDCF800C0CCF35C
:10178000881C07FB0CF40CE01E4FB7FBF3F7DFF8E7
:1017900070C0ACF1040CDCF800C0CCF3881C07FB73
:1017A0000CF4174F3F1F3F68C7F301477F1C7D00B4
:1017B000B4FBF5F7076002E0124F076000BF00BFFF
:1017C0000F4F3F6807F0F0010909104F7A5C076876
:1017D000D74047600A4F3F6807F4E051890A0B4F32
:1017E0007A5C4768D7408760054F3F6807F46041DF
:1017F000490B064F7A5C4768D740C760F0BD0000D0
:10180000083802400024F40040787D011C010020CB
:1018100000B587B001218803FFF766FF0121022090
:10182000FFF752FF4FF42040009002208DF8040093
:1018300000208DF8060003208DF8050001208DF8AA
:10184000070069462B48FFF771FB4FF4A04000905A
:1018500001208DF8040000208DF8060003208DF88B
:10186000050001208DF8070069462248FFF75EFB5E
:101870004FF480511F48FFF7CDFB05220D211D4875
:10188000FFF79CFB05220F211A48FFF797FB012168
:101890008803FFF739FF00214FF48040FFF734FF42
:1018A0000020ADF808004FF48270ADF80A00002067
:1018B000ADF80C000220ADF80E000120ADF81000CC
:1018C0004002ADF812002820ADF814000020ADF859
:1018D00016000720ADF8180002A9074800F044F8E8
:1018E0000121054800F026F8FF2000F007F807B0B6
:1018F00000BD0000000402400038004010B504465E
:1019000000BF02210A4800F021F80028F9D0214642
:10191000074800F027F800BF0121054800F016F83D
:101920000028F9D0024800F01AF8C0B210BD00003B
:101930000038004021B1028842F04002028004E0F9
:1019400002884FF6BF731A4002807047024600209B
:1019500013890B400BB1012000E0002070470146C5
:10196000888970478181704710B50022028802F48F
:1019700041520B884C8823438C882343CC882343D3
:101980000C8923434C8923438C892343CC892343EB
:101990001A430280838B4FF2FF74234083830B8AA8
:1019A000038210BD704700000CB50020019000902C
:1019B0003448006840F480303249086000BF314844
:1019C000006800F4003000900198401C01900098DD
:1019D00018B90198B0F5A04FF1D12A48006800F479
:1019E000003010B10120009001E00020009000982C
:1019F000012846D123484030006840F080502149FA
:101A0000403108602048006840F440401E490860AA
:101A10001C48083000681B49083108600846006807
:101A200040F4004008600846006840F4A050086098
:101A30001648091F0860081F006840F08070091FE1
:101A4000086000BF0F48006800F000700028F9D05F
:101A500040F205700E4908600A480830006820F01E
:101A600003000849083108600846006840F0020099
:101A7000086000BF03480830006800F00C00082828
:101A8000F8D10CBD003802400070004019544007E6
:101A9000003C024010B53748C06A07285BD2DFE837
:101AA00000F0040E1F293A4859001421324800F072
:101AB0009CFB3048C06A401C2E49C8624BE03C2069
:101AC00001F0C8FF2D49087008460078012806D1AA
:101AD00003F022FD2748C06A401C2649C8623AE04C
:101AE0004B21254800F07FFB2248C06A401C214959
:101AF000C86230E03C2001F0ADFF20490870084684
:101B00000078012806D103F007FD1A48C06A401C7E
:101B10001849C8621FE02D21174800F064FB7321AB
:101B2000154800F062FB1348C06A401C1149C862A6
:101B300011E03C2001F08EFF104908700846007843
:101B4000012806D103F0E8FC0A48C06A401C094994
:101B5000C86200E000BF00BF0648C06A062808D17E
:101B60000748006828B900200249C86201200449DA
:101B7000086010BD4C01002000080040C600002095
:101B8000B400002010B54248806A092873D2DFE80B
:101B900000F0050F202A3B455660710064213D4846
:101BA00000F01FFB3A48806A401C3949886262E0B5
:101BB000322001F04FFF38490870084600780128AC
:101BC00006D103F0A9FC3248806A401C3049886283
:101BD00051E032212F4800F004FB2D48806A401C60
:101BE0002B49886247E0322001F034FF2A4908700F
:101BF00008460078012806D103F08EFC2448806A4C
:101C0000401C2349886236E09621224800F0E9FA18
:101C10001F48806A401C1E4988622CE0322001F077
:101C200019FF1D49087008460078012806D103F005
:101C300073FC1748806A401C154988621BE03221FA
:101C4000144800F0CEFA1248806A401C104988629D
:101C500011E0322001F0FEFE0F49087008460078BE
:101C6000012806D103F058FC0948806A401C084945
:101C7000886200E000BF00BF0548806A082805D1DF
:101C80000648006810B901200549086010BD000031
:101C90004C01002000080040C6000020B4000020D5
:101CA000E0000020042808D14FF0E021096941F04C
:101CB00004014FF0E022116107E04FF0E0210969D3
:101CC00021F004014FF0E0221161704770470000DD
:101CD00010B51548006840F47000134908601348B7
:101CE000006840F001001149086000200F490831E8
:101CF00008600E4800680E4908400C4908600D480D
:101D0000091D0860081F006820F48020091F086072
:101D1000002006490C310860FFF746FE4FF00060D6
:101D200001498039086010BD88ED00E000380240AC
:101D3000FFFFF6FE1030002410B50121880700F0E7
:101D400032F901280FD10121800700F01DF901F0BF
:101D50008DF901F033FA01F043FA034800680228D4
:101D600001D100F077FD10BDEC0000207FB50546E5
:101D70000C4601210846FFF7B7FC0295ADF8044078
:101D80000020ADF80600ADF80C0001A94FF080402E
:101D900000F02EFA01221146900700F015F90121FA
:101DA000880700F0F4F81C208DF8000000208DF862
:101DB00001008DF8020001208DF803006846FFF74E
:101DC00099FA7FBD30B58BB004460D460121022043
:101DD000FFF78AFC01210420FFF776FC022208218C
:101DE0002548FFF7EBF8022209212348FFF7E6F820
:101DF0004FF44070099002208DF8280003208DF8E0
:101E0000290000208DF82A0001208DF82B0009A957
:101E10001948FFF78BF8A8B2ADF818000020ADF80C
:101E20001A000794ADF8200006A9144800F0E0F964
:101E30006020ADF804000120ADF806000020ADF8E8
:101E4000100001A90D4800F029F901A90B4800F084
:101E50007FF90821094800F071F90821074800F0CE
:101E6000B3F90121054800F083F80121034800F08F
:101E70008EF80BB030BD00000008024000040040A6
:101E800030B58BB004460D4601210420FFF72CFC31
:101E900001210220FFF718FC022208212B48FFF73E
:101EA0008DF8022209212948FFF788F8022207212C
:101EB0002648FFF783F84FF46070099002208DF8F0
:101EC000280003208DF8290000208DF82A00012029
:101ED0008DF82B0009A91D48FFF728F8A8B2ADF826
:101EE00018000020ADF81A000794ADF8200006A9EC
:101EF000174800F07DF97020ADF804000120ADF81E
:101F000006000220ADF8100001A9114800F066F8A3
:101F100001A90F4800F0C2F801A90D4800F018F916
:101F200008210B4800F0ACF80821094800F006F938
:101F30000821074800F048F90121054800F018F889
:101F40000121034800F023F80BB030BD000402402B
:101F50000008004010B50121044800F024F80128D1
:101F600003D10121014800F00FF810BD000C004022
:101F700021B1028842F08002028004E002884FF61C
:101F80007F731A4002807047CA430282704721B1B2
:101F9000028842F00102028004E002884FF6FE73DC
:101FA0001A400280704730B502460020002300240A
:101FB000158A05EA0103958905EA010413B10CB1FC
:101FC000012000E0002030BD1AB183890B438381DA
:101FD00002E083898B4383817047000070B5002441
:101FE00000220023058C4FF6EF7635400584028CE5
:101FF0008388048B48F6FF752C404FF6FF452C4034
:102000000D884FF6FF7606EA05252C434FF6DF755F
:102010002A408D8906EA05152A434D8806EA0515EA
:102020002A43154DA84202D0144DA8421DD14FF6A7
:102030007F752A40CD894FF6FF7606EA05152A43BB
:102040004FF6BF752A408D8806EA05152A434FF6DC
:10205000FF352B404FF2FF752B400D8A06EA8505B0
:102060002B434D8A06EA85052B43838004838D68C4
:102070008563028470BD000000000140000401403F
:102080000A460021018B4FF2FF7319404FF6FF7390
:1020900003EA0223194301837047000070B500244E
:1020A00000220023058C4FF6FF6635400584028C24
:1020B0008388848B4FF68F752C404FF6FC752C402F
:1020C0000D882C434FF6FF552A408D894FF6FF7639
:1020D00006EA05252A434D8806EA05252A43154DBB
:1020E000A84202D0144DA8421DD14FF2FF752A40DC
:1020F000CD894FF6FF7606EA05252A434FF6FF35D0
:102100002A408D8806EA05252A434EF6FF752B40A6
:102110004DF6FF752B400D8A06EA05152B434D8AB7
:1021200006EA05152B43838084838D68C56302848A
:1021300070BD000000000140000401400A4600217B
:10214000818B4FF6F773194011438183704700006C
:1021500070B5002200230024058C4EF6FF76354032
:102160000584038C8488828B48F6FF752A404FF6DD
:10217000FF452A400D884FF6FF7606EA05252A43DB
:102180004DF6FF752B408D8906EA05352B434D88AA
:1021900006EA05352B430A4DA84202D0094DA84254
:1021A00008D14BF6FF752C400D8A4FF6FF7606EAF4
:1021B00085152C43848082838D680564038470BDFB
:1021C00000000140000401400A460021818B4FF2CB
:1021D000FF7319404FF6FF7303EA0223194381830B
:1021E000704781637047C1637047016470470000A6
:1021F00000220288184B98420ED0184B98420BD000
:10220000B0F1804F08D0164B984205D0154B98423C
:1022100002D0154B984204D14FF68F731A404B8869
:102220001A43124B984207D0114B984204D04FF6F4
:10223000FF431A400B891A4302804B68C3620B8824
:102240000385054B984202D0044B984201D18B7A0A
:10225000038601238382704700000140000401408F
:102260000004004000080040000C00400010004046
:102270000014004010B52DED068B40F22551C848E2
:1022800000F021FA00287DD0C54800F0D5FAC4B28C
:10229000C448C5490968445400783A2802D0BDECC6
:1022A000068B10BDC0480068401CBF490860084646
:1022B0000068352867D100200860BA4890F82900E6
:1022C000BA490860B74890F82A00B9490860B5488B
:1022D00090F82500B7490860B24890F82600B64942
:1022E0000860B04890F82700B4490860AD4890F8FD
:1022F0002800B3490860AD490968AD4A126841EA4F
:10230000022004F02BFCAF4AC2E90401104690ED14
:10231000041BB0EE410AF0EE610A9FEDAB1B53ECDB
:10232000112B51EC100B04F02DFC19D8A54890EDA1
:10233000041BB0EE410AF0EE610A9FEDA31B53ECC3
:10234000112B51EC100B04F03DFA41EC180B9FEDF2
:10235000A00B53EC102B04F051FC9A4AC2E9040183
:10236000984890ED041BB0EE410AF0EE610A9FED33
:102370009A1B53EC112B51EC100B04F03DFD2CD8A3
:10238000904801E009E103E190ED041BB0EE410A41
:10239000F0EE610A53EC102B9FED911B51EC110BE9
:1023A00004F05CF941EC1A0B9FED870B53EC102BFA
:1023B00004F008FA41EC190B9FED850B53EC102B40
:1023C00004F01CFC41EC180B9FED810B53EC102B1F
:1023D00004F044F97B4AC2E9040176490968764A67
:1023E000126841EA022004F0B9FB764AC2E9020110
:1023F000104690ED021BB0EE410AF0EE610A9FED2F
:10240000721B53EC112B51EC100B04F0BBFB19D8D1
:102410006C4890ED021BB0EE410AF0EE610A9FEDB0
:102420006A1B53EC112B51EC100B04F0CBF941EC6F
:10243000180B9FED670B53EC102B04F0DFFB614A88
:10244000C2E902015F4890ED021BB0EE410AF0EED6
:10245000610A9FED611B53EC112B51EC100B04F042
:10246000CBFC29D8574890ED021BB0EE410AF0EEA4
:10247000610A53EC102B9FED5A1B51EC110B04F029
:10248000EDF841EC1A0B9FED500B53EC102B04F0C0
:1024900099F941EC190B9FED4E0B53EC102B04F006
:1024A000ADFB41EC180B9FED4A0B53EC102B04F0E5
:1024B000D5F8444AC2E9020140490968404A126815
:1024C00041EA022004F04AFB3E4A03C23D4890ED37
:1024D000001BB0EE410AF0EE610A9FED3B1B53EC8E
:1024E000112B51EC100B04F04DFB18D8354890ED32
:1024F000001BB0EE410AF0EE610A9FED331B53EC76
:10250000112B51EC100B04F05DF941EC180B9FED11
:10251000300B53EC102B04F071FB2A4A03C22948FC
:1025200090ED001BB0EE410AF0EE610A9FED2A1B10
:1025300053EC112B51EC100B04F05EFC28D8214811
:1025400090ED001BB0EE410AF0EE610A53EC102B47
:102550009FED231B51EC110B04F080F841EC1A0B9A
:102560009FED190B53EC102B04F02CF941EC190BD7
:102570009FED170B53EC102B04F040FB41EC180BB4
:102580009FED130B53EC102B04F068F80D4A03C2B7
:1025900040F22551144800F07BF800BF7FE60000B0
:1025A0000044004098010020F40000200C010020AD
:1025B000080100200401002000010020FC00002090
:1025C000F80000208001002000000000C0ADDE40C7
:1025D00000000000008066400000000020A9E040EC
:1025E0000000000020A9E0C00010014010B540F23A
:1025F0002551224800F067F800283DD01F4800F020
:102600001BF9C4B21D4800F017F91D4908601D48A8
:10261000007888BB1C480078022809D1A4F130005A
:10262000032801D0042803D1A4F130001749087011
:1026300015480078032803D013480078042809D1EE
:10264000A4F13000052801D0062803D1A4F1300000
:102650000E4948700C480078052803D00A480078D5
:10266000062809D1A4F13000072801D0082803D199
:10267000A4F130000549887010BD000000480040FA
:102680001801002016010020BC00002000000020DE
:1026900010B50022002340F66A14A14200D100BF09
:1026A0000A1201249440A3B2DC43048010BD21B17E
:1026B000828942F40052828104E082894DF6FF73E0
:1026C0001A408281704770B502460024002300251D
:1026D000002040F66A16B14200D100BFC1F3421596
:1026E00001F01F03012606FA03F3012D02D196899A
:1026F000334006E0022D02D1168A334001E0968A6B
:1027000033400C12012606FA04F41688344013B143
:102710000CB1012000E0002070BDF0B5034600249C
:1027200000260025002040F66A17B94200D100BFFC
:102730001846C1F3421401F01F06012707FA06F5F7
:10274000012C01D10C3004E0022C01D1103000E04A
:1027500014301AB107682F43076002E00768AF43DF
:102760000760F0BD2DE9FF4705460E460024A1464F
:1027700000BFA046B08900B100BF2C8A24F44054A9
:10278000F08804432C82AC8941F20C608443B08809
:1027900031890843718908430443AC81AC8A24F42D
:1027A0004074B0890443AC826846FEF7BDFF204800
:1027B000854202D01F48854202D1DDF80C9001E02D
:1027C000DDF80890A88900F4004040B109EBC90089
:1027D00000EB091031684900B0FBF1F707E009EBA5
:1027E000C90000EB091031688900B0FBF1F76420E3
:1027F000B7FBF0F004012009642101FB1078A889DF
:1028000000F4004040B1322000EBC800B0FBF1F012
:1028100000F00700044308E0322000EB08106421B8
:10282000B0FBF1F000F00F0004432C81BDE8FF87FE
:10283000001001400014014001468888C0F30800E0
:102840007047C1F308028280704700BFFEE700BFF7
:102850007047000010B51348006809281FD2DFE850
:1028600000F005080B0E1114171A1D00FDF786FD68
:1028700015E0FDF7F5FD12E0FDF7C0FF0FE0FDF7F5
:10288000C3FE0CE0FEF788F809E0FEF77BF906E0EE
:10289000FEF788FA03E000F081FD00E000BF00BF12
:1028A00010BD0000D400002010B500F099FC734862
:1028B000406805287ED2DFE800F0038196B9D10098
:1028C0006F4890ED021BB0EE410AF0EE610A9FEDF9
:1028D0006D1B53EC112B51EC100B04F08DFA13D23D
:1028E000674890ED021BB0EE410AF0EE610A9FEDE1
:1028F000671B53EC112B51EC100B04F043F903D27E
:102900005A21642003F076FC6248C0786149097955
:1029100008446049897808445E49497808445D491B
:10292000097808445B49497908445A498979084437
:102930005849C979084408283FD157480078564972
:10294000497808445449897808445349C978084467
:102950005149097908445049497908444E498979CF
:1029600008444D49C9790844082826D1444890EDC7
:10297000021BB0EE410AF0EE610A9FED481B53ECDA
:10298000112B51EC100B04F0FDF80FD93C4890EDE1
:10299000021BB0EE410AF0EE610A9FED421B53ECC0
:1029A000112B51EC100B04F027FA06D8334840687D
:1029B000401C00E053E03149486050E064210B20A6
:1029C00003F018FC322001F035F838490870084649
:1029D0000078012806D102F095FD28484068401C87
:1029E000264948603BE032210B2003F003FC2A48D3
:1029F00000782949497808442749897808442649B4
:102A0000C978084424490979084423494979084484
:102A10002149897908442049C9790844082804DAF9
:102A200016484068401C1549486018E03221632070
:102A300003F0E0FB1848C0781749097908440128D9
:102A40000BDC1448C078134909790844012804DCD8
:102A50000A484068401C0949486000E000BF00BFC8
:102A60001348006848B905484068042805D101208A
:102A70000F49086000200149486010BD4C0100204A
:102A80008001002000000000000034400000000031
:102A900000804B40100000200800002000000000D3
:102AA000000014400000000000004940C500002064
:102AB000B400002010B504469FED3C0A3C4880ED70
:102AC000000A10213B48FEF79CFA68B9204604EB47
:102AD000D071491001EB410100EE101AB8EEC00AA6
:102AE000334981ED000A11E008213248FEF789FAE6
:102AF00060B9604200EBD071491001EB410100EE7A
:102B0000101AB8EEC00A2A4981ED000A00EE104AF8
:102B1000B8EEC00A2648D0ED000A30EE200A26485A
:102B200080ED000A00EE104AB8EEC00A2048D0ED51
:102B3000000A30EE600A214880ED000A00F082FAB7
:102B40001F480078062818D11C4890ED000AF3EEC3
:102B5000040A30EE200ABCEEC00A10EE101A194822
:102B6000FFF741FB144890ED000ABCEEC00A10EEDE
:102B7000101A1448FFF739FB17E0104890ED000ACF
:102B8000BCEEC00A10EE101A0E48FFF72CFB0A48E4
:102B900090ED000AF2EE0E0A30EE200ABCEEC00AFA
:102BA00010EE101A0748FFF720FB10BD00000000D0
:102BB00068000020000C02406C0000207000002023
:102BC000BC0000200004004010B52348406920B13B
:102BD000012816D002282FD129E04121632003F0DB
:102BE00009FB08211D48FEF70CFA20B110211B48F3
:102BF000FEF707FA20B918484069401C1649486199
:102C00001AE04121632003F0F5FA4FF4C87000F098
:102C100011FF1349087008460078012806D102F018
:102C200071FC0D484069401C0B49486104E03C219F
:102C3000632003F0DFFA00BF00BF0A48006848B90C
:102C400005484069022805D1012006490860002096
:102C50000149486110BD00004C010020000C0240F9
:102C6000C5000020B400002010B504466FF0040039
:102C7000FFF718F8E11704EB5171C1F3C701074AD8
:102C800011701046007800EB4001C1EBC0104FF608
:102C9000FF7101EAC0000249088010BDF000002069
:102CA000F200002070B504464FF4077094FBF0F07A
:102CB000C6B24FF4077094FBF0F100FB114085B2EF
:102CC00005E04FF4077000F009F8701EC6B2002E40
:102CD000F7D115B1284600F001F870BD0146114A40
:102CE00012884A434FF0E0235A6100229A611A4643
:102CF000126942F001021A6100BF4FF0E022106930
:102D000000F001021AB100F48032002AF5D04FF031
:102D1000E022126922F001024FF0E0231A61002242
:102D20009A617047F200002010B52648806930B1E2
:102D3000012815D0022824D0032834D132E096206F
:102D400000F078FE2049087008460078012806D176
:102D500002F0D8FB1B488069401C1A49886122E0B8
:102D60004FF480711948FEF74CF920B14021184802
:102D7000FEF747F920B913488069401C1149886162
:102D800011E0962000F056FE0F49087008460078C2
:102D9000012806D102F0B6FB0A488069401C0949A7
:102DA000886100E000BF00BF0A48006848B90548D4
:102DB0008069032805D101200649086000200149E7
:102DC000886110BD4C010020C500002000100240A9
:102DD000000C0240B40000209FED8E0A8E4880ED6A
:102DE000000A9FED8C0A8D4880ED000A8C4800781F
:102DF000012820DC00208B49086017E08A488949B7
:102E00000968405C68B989488649096800EB810017
:102E100090ED000A8048D0ED000A30EE200A80EDE7
:102E2000000A80480068401C7E4908607D480068B0
:102E30000828E3DBB0E000207A4908601AE07A480D
:102E400078490968405C18B9764800687849086094
:102E500074480068C0F107007349085C28B97148DC
:102E60000068C0F10700734908606E480068401CA4
:102E70006C4908606B4800680428E0DB6C48006817
:102E8000401CC0B16B480068401CA0B96748684945
:102E9000096800EB810090ED000A65480068401E5B
:102EA000624901EB8000D0ED000A30EE200A5A485A
:102EB00080ED000A6AE05F480068401CC0B15C48D1
:102EC0000068401CA0B959485A49096800EB8100C4
:102ED00090ED000A554957480068401C01EB8000FE
:102EE000D0ED000A30EE200A4B4880ED000A4DE09C
:102EF00050480068401C70B34D480068401C50B3F7
:102F00004B480068C0F107004A490968884214DA52
:102F100046484749096800EB810090ED000A4448A3
:102F20000068401E414901EB8000D0ED000A30EE00
:102F3000200A394880ED000A28E03D480068C0F1C9
:102F400007003C490968884206D19FED320A3248A1
:102F500080ED000A1AE014E034483649096800EBB5
:102F6000810090ED000A314932480068401C01EBB5
:102F70008000D0ED000A30EE200A274880ED000ADC
:102F800004E09FED240A244880ED000A4FF0FF3052
:102F900027490860274908601F4890ED000A1F482C
:102FA000D0ED000A20EE200AB5EEC00AF1EE10FACC
:102FB00010D2194890ED000ADFED1F0A20EE200A1A
:102FC0001648D0ED000A9FED1D1A01EE600A1C485C
:102FD00080ED000A104890ED000A1048D0ED000A7C
:102FE00020EE200AB5EEC00AF1EE10FA10DB0A4816
:102FF00090ED000ADFED100A20EE200A0748D0ED20
:10300000000A9FED0E1A01EE200A0D4880ED000A1D
:103010007047000000000000200000202400002075
:103020007C00002004000020080000202800002070
:103030009C000020A00000206666A63FCDCCCC3EC0
:103040001C00002000200749086001200649C1F843
:10305000A80200200349091D086001200249C1F8A7
:1030600090027047AC0241420000414210B510216D
:103070004648FDF7C6FF4649087001214548FDF75F
:10308000C0FF4349487020214048FDF7BAFF40493E
:10309000887002213F48FDF7B4FF3D49C8704021C8
:1030A0003A48FDF7AEFF3A49087104213948FDF767
:1030B000A8FF3749487180213448FDF7A2FF344901
:1030C000887108213348FDF79CFF3149C871802180
:1030D0003148FDF796FF314908704FF480712E4852
:1030E000FDF78FFF2D4948704FF400712A48FDF716
:1030F00088FF2A4988704FF480612748FDF781FFD7
:103100002649C8704FF400612348FDF77AFF234930
:1031100008714FF480512048FDF773FF1F49487133
:103120004FF400511C48FDF76CFF1C4988714FF4A7
:1031300080411948FDF765FF1849C87120211648DC
:10314000FDF75FFF164908604FF400711548FDF761
:1031500058FF154908604FF480711248FDF751FF80
:103160001249087040210C48FDF74BFF10490870C8
:103170004FF480710B48FDF744FF0E490870082199
:103180000548FDF73EFF0C49087010BD00000240E5
:103190000800002000080240000C0240100000203F
:1031A0009000002000100240940000201800002031
:1031B000190000201A0000201B00002010B507484D
:1031C00090ED041BB0EE410AF0EE610A51EC100BD9
:1031D00003F050FC0446204610BD00008001002092
:1031E000002012490870124908701249086018E05E
:1031F000114810490968405C20B90C480078401C0F
:103200000A4908700D480B490968405C20B9084814
:103210000078401C0649087006480068401C0549B3
:103220000860044800680828E2DB70477C00002042
:103230007D00002004000020080000201000002075
:1032400010B53348406A30B101280ED0022821D091
:1032500003284ED14CE03221642002F0CBFF2C48F1
:10326000406A401C2A49486243E0322000F0E2FBF9
:10327000284908700846007801280AD102F042F96E
:103280003221632002F0B6FF2148406A401C2049E9
:1032900048622EE02048C0781F4909790844012877
:1032A00025DC1E4800781D49C979084402281ED132
:1032B0001A48C078194909790844012817DC1648CA
:1032C00000781549C9790844022810D1C101144871
:1032D000FDF797FE044640211248FDF792FE204478
:1032E000022804D10A48406A401C0949486200E0AB
:1032F00000BF00BF0648406A032808D10A4800689A
:1033000028B900200249486201200749086010BD21
:103310004C010020C5000020080000201000002003
:1033200000100240000C0240B400002070B52DEDEA
:10333000048B044600201449086001201349C1F899
:10334000A80200201049091D086001200F49C1F89A
:10335000900221460E48FEF746FF204603F0E7FBA9
:1033600041EC190B9FED0B0B53EC102B03F046FCBB
:1033700041EC180B03F0AEFB054629460448FEF766
:1033800034FFBDEC048B70BDAC02414200004142F1
:10339000000400409A9999999999F13F10B5A24873
:1033A0000078102841D2DFE800F0084154616778C6
:1033B000858B9CABC0D1E4F7F5F40021042002F02A
:1033C00019FF40F2B63000F035FB98490870084606
:1033D0000078012829D1964890ED021BB0EE410AF1
:1033E000F0EE610A9FED931B53EC112B51EC100B87
:1033F00003F0C8FB0FD38E4890ED021BB0EE410ADC
:10340000F0EE610A9FED8D1B53EC112B51EC100B6C
:1034100003F0F2FC09D202F075F80820894908701F
:1034200081480078401C80490870EEE00020864901
:103430000860052001F0CCFA83480068012807D114
:1034400000208049087078480078401C7649087050
:10345000DBE04121632002F0CDFEFDF71BFF20B130
:1034600071480078401C70490870CEE001221E218E
:103470000F2000F0EFF8C8E0002073490860012138
:103480006C2002F09FF970480068012804D166485A
:103490000078401C64490870B7E04121632002F0C5
:1034A000A9FEFDF7F7FE20B15F480078401C5E4999
:1034B0000870AAE001221E210F2000F0CBF8A4E042
:1034C0000020614908600221722002F07BF95E4809
:1034D0000068012804D154480078401C5249087003
:1034E00093E0002058490860FFF71EFC564800682A
:1034F000012804D14C480078401C4B49087084E0F6
:103500003221632002F076FE322000F093FA474920
:10351000087008460078012806D101F0F3FF424800
:103520000078401C404908706FE000204649086060
:103530000221722002F046F943480068012804D1B4
:1035400039480078401C384908705EE000203E4948
:103550000860062001F03CFA3B480068012807D1CA
:1035600000203849087030480078401C2E49087007
:103570004BE0002034490860022001F0B3F83248E3
:103580000068012804D128480078401C26490870AA
:103590003BE037E01FE0FFE700202B49086002F026
:1035A000C5FB29480068012814D1214890ED041B6F
:1035B000B0EE410AF0EE610A51EC100B03F05AFA3A
:1035C0002249086008201F49087017480078401CED
:1035D0001549087019E000201B49086001201949AD
:1035E00008701A48006800F0B5FA1748006801280A
:1035F00007D10020134908700B480078401C0A4985
:10360000087002E001F0F6FE00BF00BF0648007837
:103610000F2807D10020044908700D480068401C9D
:103620000B49086010BD0000E8000020C500002024
:103630008001002000000000000024400000000085
:1036400000004940BC000020B4000020840000209D
:10365000D400002070B506460D461446294800786F
:1036600005284CD2DFE800F0031824393E00412140
:10367000632002F0BFFD304600F0DCF922490870FB
:1036800008460078012806D101F03CFF1D4800786B
:10369000401C1C49087032E0022C03D14FF4B47076
:1036A00002F07CFF012C02D1FA2002F077FF26E025
:1036B0002146092002F09EFD284600F0BBF9124980
:1036C000087008460078012806D101F01BFF0D485C
:1036D0000078401C0B49087011E06821642001F05B
:1036E0009BFE0CE00021012002F084FD0020054932
:1036F000087006480078401C0449087000BF00BFED
:1037000070BD0000C4000020C5000020E8000020BB
:1037100070B52DED048B044600201449086001208B
:103720001349C1F8A8021149091D08600020104979
:10373000C1F8900221460F48FEF755FD204603F0E0
:10374000F6F941EC190B9FED0C0B53EC102B03F029
:1037500055FA41EC180B03F0BDF90546294605481A
:10376000FEF743FDBDEC048B70BD0000AC0241428E
:1037700000004142000400409A9999999999F13FBB
:1037800010B5044600200B49086001200A49C1F821
:10379000A8020849091D086000200749C1F89002E5
:1037A00021460648FEF71FFD00210448FEF71DFDD7
:1037B00010BD0000AC024142000041420004004044
:1037C0004FF4A060FDF7D2FD4FF4E13002F010FBA2
:1037D0004FF4E13002F068FBA820FFF745FAFCF750
:1037E0009DFDFDF76BFDFDF7C9FC00202B4908602E
:1037F000FDF7E6FDFDF7C4FD532141F28730FEF7EA
:10380000B5FA532140F2E730FEF7DCFA40F28F615F
:1038100040F2E730FEF734FB32212148FEF7E1FCAD
:103820002D211F48FEF7DFFC5A211D48FEF7DDFC65
:10383000FFF71CFCFFF7C2FCFFF7D2FC2CE04FF4B3
:1038400080711848FDF7DDFB68B940211648FDF787
:10385000D8FB40B91548006828B91548006810B968
:10386000012013490860FFF701FCFFF7A7FCFFF7F1
:10387000B7FC0F480068012806D10C4800680128F1
:1038800002D102200A49086009480068022803D1D1
:103890000848007802F0DCFDD1E700008882414250
:1038A0000008004000100240000C02409000002080
:1038B000EC0000207E00002010B52DED048B0446A6
:1038C000204603F034F941EC190B504890ED041BED
:1038D000B0EE410AF0EE610A53EC102B51EC190BDB
:1038E00003F0C0FA41EC180B03F0C4F84849086033
:1038F000084690ED000AF8EEC01AB2EE041ADFEDA9
:10390000450AB7EE080A00F0B5F8434880ED000A12
:1039100090ED000ADFED410A30EEC00A404880ED2C
:10392000000A3D4890ED000ADFED3C0A30EE200A27
:103930003C4880ED000A3A4890ED000AB5EEC00A16
:10394000F1EE10FA03D29FED330A80ED000A3548FC
:1039500090ED000AB5EEC00AF1EE10FA03D29FED29
:103960002D0A80ED000A2E4890ED000ADFED2E0AA8
:10397000B4EEE00AF1EE10FA03DD9FED2B0A80EDC4
:10398000000A284890ED000ADFED270AB4EEE00AAD
:10399000F1EE10FA03DD9FED240A80ED000AFFF737
:1039A00051FB22480078042814D11E4890ED000AEB
:1039B000BCEEC00A10EE101A1D48FEF714FC1848A1
:1039C00090ED000ABCEEC00A10EE101A1848FEF77F
:1039D0000CFC17E0134890ED000ABCEEC00A10EE94
:1039E000101A1348FEF7FFFB0D4890ED000AF1EEA8
:1039F000040A30EE200ABCEEC00A10EE101A0C4881
:103A0000FEF7F3FBBDEC048B10BD0000800100202D
:103A100080000020000000006800002000009642A6
:103A20006C0000207000002000002043BC0000203B
:103A300000040040014606480068401C044A10602B
:103A400010460068884201DB012070470020FCE737
:103A5000B8000020014606480068401C044A106077
:103A600010460068884201DB012070470020FCE717
:103A7000C0000020B0EE402AF0EE602AF0EE610AAD
:103A80002F4890ED003A33EE203A80ED003AF5EE03
:103A9000C00AF1EE10FA19D0F5EEC00AF1EE10FAF4
:103AA00007DD284890ED003AB5EEC03AF1EE10FA85
:103AB0000CD3F5EEC00AF1EE10FA0CD2214890EDCD
:103AC000003AB5EEC03AF1EE10FA04DD9FED1E3A71
:103AD0001B4880ED003A1A4890ED003ADFED1B3AA2
:103AE000B4EEE33AF1EE10FA03DD9FED183A80ED03
:103AF000003A134890ED003ADFED153AB4EEE33AA0
:103B0000F1EE10FA03D29FED123A80ED003A0D4823
:103B100090ED003A30EEC33A80ED003A22EE203AC2
:103B20000748D0ED003A02EEA33A0648D0ED003A3D
:103B3000B0EE430A01EE230AC0ED000A7047000010
:103B4000A4000020A8000020000000000000C842DF
:103B50000000C8C210B52DED068B0446FE48007863
:103B6000072803D0FC480078082875D1FB48C068B6
:103B7000072872D2DFE800F0047AE8F2F1F0EF00F3
:103B8000F748006818B90420F449C8606DE0F548AA
:103B90000078F44949780844F24989780844F149A1
:103BA000C9780844EF4909790844EE49497908443D
:103BB000EC4989790844EB49C9790844082854D16B
:103BC000E94890ED021BB0EE410AF0EE610A9FED6C
:103BD000E71B53EC112B51EC100B03F00DF944D201
:103BE000E14890ED021BB0EE410AF0EE610A9FED54
:103BF000E11B53EC112B51EC100B02F0C3FF34D23C
:103C00006421632002F0F6FAD3480078082825D111
:103C1000D54890ED021BB0EE410AF0EE610A9FED2F
:103C2000D31B53EC112B51EC100B02F0ABFF0FD355
:103C3000CD4890ED021BB0EE410AF0EE610A9FED17
:103C4000CD1B53EC112B51EC100B03F0D5F805D222
:103C50000120C249C86008E064E153E1BE48007831
:103C6000072802D10220BD49C8604BE1BC4800686A
:103C700018B90420B949C86065E0BB4890ED021B43
:103C8000B0EE410AF0EE610A9FEDB81B53EC112B28
:103C900051EC100B03F0B0F813D2B34890ED021BB7
:103CA000B0EE410AF0EE610A9FEDB41B53EC112B0C
:103CB00051EC100B02F066FF03D27821632002F072
:103CC00099FAA8480078A74949780844A54989780D
:103CD0000844A449C9780844A24909790844A1497B
:103CE000497908449F49897908449E49C97908441B
:103CF000082828D19C4890ED021BB0EE410AF0EE56
:103D0000610A9FED9A1B53EC112B51EC100B03F041
:103D100073F818D2944890ED021BB0EE410AF0EE11
:103D2000610A9FED961B53EC112B51EC100B02F026
:103D300029FF08D26421632002F05CFA8748C0683A
:103D4000401C8649C860DDE08548006838B9042019
:103D50008249C86017E0D0E071E066E014E03220EC
:103D6000FFF768FE874908700846007801280AD1E5
:103D700001F0C8FB5A21642002F03CFA7748C06881
:103D8000401C7649C860BDE07548006818B9042039
:103D90007249C86048E0744890ED021BB0EE410AD9
:103DA000F0EE610A9FED751B53EC112B51EC100BDB
:103DB00003F022F814D840217348FDF722F978B9AE
:103DC0004FF480717148FDF71CF948B91E2163203A
:103DD00002F010FA6148C068401C6049C86023E0E6
:103DE000614890ED021BB0EE410AF0EE610A9FEDD2
:103DF0005F1B53EC112B51EC100B02F0C3FE13D8D8
:103E000040216148FDF7FDF870B94FF480715F48BB
:103E1000FDF7F7F840B91E21632002F0EBF94F4897
:103E2000C068401C4D49C8606CE00021084602F0A3
:103E3000E1F94A48C068401C4849C86062E0204631
:103E400002F075FE41EC190B474890ED041BB0EEF3
:103E5000410AF0EE610A53EC102B51EC190B03F000
:103E600001F841EC180B02F005FE494908600846CC
:103E70000068002803DB0846006808601FE0204651
:103E800002F055FE41EC190B374890ED041BB0EEE3
:103E9000410AF0EE610A53EC102B9FED3E1B51ECF2
:103EA000110B02F0DBFB41EC1A0B53EC192B02F067
:103EB000E5FF41EC180B02F0DDFD354908603448A0
:103EC0000068372803DCC820FFF722FC02E06420EA
:103ED000FFF71EFC2E480068AF280DDB2C48006859
:103EE000BE2809DC01F086FA0020294908601B4839
:103EF000C068401C1949C86004E000210A2002F093
:103F000079F900BF00BF25480068002809D113488F
:103F1000C0680628FAD101202049086000200F4916
:103F2000C8609CE30C48007801287AD10B48C0682F
:103F3000072875D2DFE800F0047694E7FEFDFC0068
:103F40004FF400711148FDF75CF810B904200349E3
:103F5000C8600448007823E0BC0000204C01002029
:103F600094000020080000208001002000000000D4
:103F70000000244000000000000049400000000054
:103F800000E07540C5000020000C02400010024017
:103F9000D00000200000000000807640B400002027
:103FA000FE4949780844FD4989780844FB49C978A5
:103FB0000844FA4909790844F84949790844F74915
:103FC00089790844F549C9790844082828D1F44872
:103FD00090ED021BB0EE410AF0EE610A1FED1D1BD1
:103FE00053EC112B51EC100B02F006FF18D2EC48E9
:103FF00090ED021BB0EE410AF0EE610A1FED231BAB
:1040000053EC112B51EC100B02F0BCFD08D26421D3
:10401000084602F0EFF8E348C068401CE149C86078
:1040200039E148E14FF40071DF48FCF7EAFF10B9CD
:104030000420DC49C8603220FFF7FCFCDB49087033
:104040000846007801280AD101F05CFA3221642088
:1040500002F0D0F8D348C068401CD249C8601AE1C9
:104060004FF40071D048FCF7CCFF10B90420CD49C3
:10407000C860CB4890ED021BB0EE410AF0EE610A39
:104080001FED441B53EC112B51EC100B02F0B4FE4E
:1040900014D84021C648FCF7B4FF78B94FF48071BA
:1040A000C148FCF7AEFF48B91E21632002F0A2F818
:1040B000BC48C068401CBB49C86023E0B84890EDCC
:1040C000021BB0EE410AF0EE610A1FED581B53ECE3
:1040D000112B51EC100B02F055FD13D84021B448C0
:1040E000FCF78FFF70B94FF48071AF48FCF789FF80
:1040F00040B91E21632002F07DF8AA48C068401C28
:10410000A849C860C7E0A64890ED021BB0EE410A7E
:10411000F0EE610A1FED671B53EC112B51EC100BF5
:1041200002F06AFE19D84021A148FCF76AFF02E0BC
:10413000B0E051E037E001280FD101029A48FCF7C6
:1041400060FF012809D10021084602F053F8954884
:10415000C068401C9349C86024E0914890ED021B60
:10416000B0EE410AF0EE610A9FED921B53EC112B69
:1041700051EC100B02F006FD14D840218C48FCF7DE
:1041800040FF01280ED101028748FCF73AFF0128C1
:1041900008D10021084602F02DF88248C068401C72
:1041A0008049C86077E000210A2002F023F86420EB
:1041B000FFF740FC7D4908700846007801280AD1C5
:1041C00001F0A0F90021084602F014F87548C06813
:1041D000401C7449C8605EE0204602F0A8FC41EC37
:1041E000190B6F4890ED041BB0EE410AF0EE610A26
:1041F00053EC102B51EC190B02F034FE41EC180B70
:1042000002F038FC6D49086008460068002803DBAE
:104210000846006808601FE0204602F088FC41EC78
:10422000190B5F4890ED041BB0EE410AF0EE610AF5
:1042300053EC102B1FEDA91B51EC110B02F00EFAE1
:1042400041EC1A0B53EC192B02F018FE41EC180B41
:1042500002F010FC5949086058480068372803DC10
:10426000C820FFF755FA02E06420FFF751FA5348DF
:104270000068AF280DDB51480068BE2809DC01F05A
:10428000B9F800204D4908604648C068401C4549BF
:10429000C86000E000BF00BF49480068002809D19D
:1042A0004048C0680628FAD101204549086000202E
:1042B0003C49C860D3E13B48C068082850D2DFE8D9
:1042C00000F0045085D5F3F1F0EFFEF7CFFE3D4846
:1042D000006818B903203349C86041E02F480078CE
:1042E0002E49497808442D49897808442B49C978D2
:1042F00008442A4909790844284949790844274942
:10430000897908442549C9790844052828DB2448C7
:1043100090ED021BB0EE410AF0EE610A9FED251B05
:1043200053EC112B51EC100B02F066FD18D21C4817
:1043300090ED021BB0EE410AF0EE610A1FEDF11B99
:1043400053EC112B51EC100B02F01CFC08D2642131
:10435000084601F04FFF1348C068401C1149C8606F
:104360006FE1FEF783FE1748006818B903200D4976
:10437000C8602AE03220FFF75DFB0C490870084650
:104380000078012821D101F0BDF85A21642001F004
:1043900031FF0448C068401C024915E008000020B5
:1043A000800100204C01002000100240C5000020C8
:1043B000000C02400000000000001440D00000206B
:1043C000B400002094000020C8603AE1A54890EDB8
:1043D000021BB0EE410AF0EE610A9FEDA31B53EC05
:1043E000112B51EC100B02F007FD0AD84021A04818
:1043F000FCF707FE28B94FF480719E48FCF701FED8
:1044000010B19D48006848B900210A2001F0F2FE71
:104410009A48C068401C9949C86026E0914890EDD0
:10442000021BB0EE410AF0EE610A1FED1E1B53ECB9
:10443000112B51EC100B02F0A5FB0AD840218C483F
:10444000FCF7DFFD28B94FF480718A48FCF7D9FDED
:1044500010B18948006840B900210A2001F0CAFE65
:104460008648C068401C8549C860EAE03220FFF7F2
:10447000E1FA834908700846007801280FD101F05D
:1044800041F800210A2001F0B5FE00207D490860B6
:104490007D4908607948C068401C7849C860D0E010
:1044A000CAE06BE02AE0FFE700210A2001F0A2FE4B
:1044B0007648007802281BD17348006810B9FDF7D0
:1044C00061FB1AE070480068012816D16D48006849
:1044D00010B9FCF7A3FD10E06A48006801280CD170
:1044E0000021084601F086FE06206449C86004E009
:1044F0006248C068401C6149C860A2E06448007816
:1045000062490978884202D06148007838B95F482A
:104510000078032818D05D480078042814D05C483F
:1045200040785A490978884202D05948407838B9C9
:1045300056480078052807D054480078062803D04C
:104540005248007802280FD14E48006810B9FCF795
:1045500065FD12E00021084601F04CFE4748C068A6
:10456000401C4649C86008E00021084601F042FEB0
:104570004248C068401C4149C86062E0204602F0E1
:10458000D6FA41EC190B374890ED041BB0EE410A06
:10459000F0EE610A53EC102B51EC190B02F062FCA7
:1045A00041EC180B02F066FA3A49086008460068C8
:1045B000002803DB0846006808601FE0204602F080
:1045C000B6FA41EC190B274890ED041BB0EE410AF6
:1045D000F0EE610A53EC102B9FED2F1B51EC110BE9
:1045E00002F03CF841EC1A0B53EC192B02F046FC9C
:1045F00041EC180B02F03EFA264908602548006895
:10460000372803DCC820FFF783F802E06420FFF7B7
:104610007FF820480068AF280DDB1E480068BE28E0
:1046200009DC00F0E7FE00201A4908601348C06862
:10463000401C1249C86004E000210A2001F0DAFDA4
:1046400000BF00BF1648006848B90C48C06807287A
:1046500005D101201249086000200849C860BDEC5E
:10466000068B10BD80010020000000000030764065
:10467000000C024000100240940000204C01002079
:10468000C5000020DC000020E0000020BC0000206D
:1046900000000020D00000200000000000807640D4
:1046A000B400002010B5044601200B49086000202A
:1046B0000A49C1F8A8020849091D086001200749F4
:1046C000C1F8900221460648FDF78DFD21460448B9
:1046D000FDF78BFD10BD0000AC02414200004142DD
:1046E0000004004010B50446012C7CD1AD48806820
:1046F000062824D2DFE800F003243A7EAECCAA4894
:10470000C078A94909790844A74949790844A649C4
:1047100089780844A44909780844A3494978084499
:10472000A14989790844A049C9790844082806D1D3
:104730000021084601F05EFD01209A498860A8E04A
:104740005020FFF71DF81E20FFF774F997490870F5
:1047500008460078012808D100F0D4FE5A210B2029
:1047600001F048FD02208F49886092E08E48C078B1
:104770008D49097908448C49497908448A498978DE
:104780000844042835D18A4880788949C978084482
:10479000874909790844864949790844042828D179
:1047A000844890ED021BB0EE410AF0EE610A9FEDE5
:1047B000821B53EC112B51EC100B02F01DFB18D295
:1047C0007C4890ED021BB0EE410AF0EE610A9FEDCD
:1047D0007C1B53EC112B51EC100B02F0D3F908D2D7
:1047E00041210B2000E064E001F004FD03206D494D
:1047F00088604EE06F4890ED021BB0EE410AF0EE8B
:10480000610A9FED6D1B53EC112B51EC100B02F064
:10481000B9F907D20021084601F0ECFC03206149F8
:10482000886016E0634890ED021BB0EE410AF0EE9E
:10483000610A9FED631B53EC112B51EC100B02F03E
:10484000DBFA06D20021084601F0D4FC04205549C9
:1048500088601EE05020FEF793FF5348C07852490D
:10486000097908445049497908444F4989790844ED
:104870004D49C9790844052809DA062052490870CB
:104880002D21632001F0B6FC05204649886000E038
:1048900000BF00BF4D480068002809D1414880682A
:1048A00005287ED101204949086000203D498860E3
:1048B00077E0022C75D13B488068052863D2DFE899
:1048C00000F003263B5061003748C078364909792B
:1048D00008443549497908443349897808443249BC
:1048E000097808443049497808442F4989790844AF
:1048F0002D49C9790844082808D178210B2001F0F6
:1049000079FC28488068401C264988603BE0C82024
:10491000FFF790F8254908700846007801280AD169
:1049200000210A2001F066FC1E488068401C1D49D9
:10493000886000F0E7FD26E03220FFF77BF81B4996
:1049400008700846007801280AD12821632001F068
:1049500051FC14488068401C1249886000F0D2FD68
:1049600011E01148C078104909790844012808DC91
:104970002D21632001F03EFC0A488068401C094953
:10498000886000E000BF00BF1048006848B90548D3
:104990008068042805D101200C49086000200149E5
:1049A000886010BD4C01002008000020C5000020D8
:1049B00010000020800100200000000000001440D2
:1049C0000000000000804B40BC000020B40000202C
:1049D00070B52DED048B0446012C72D1F8480069A6
:1049E000052870D2DFE800F0031C30596E00082162
:1049F000F448FCF706FB90B9F348C078F24909790E
:104A00000844F14949790844032808D1002108469F
:104A100001F0F0FBEA480069401CE949086152E0F6
:104A20006420FEF7ADFE2820FFF704F8E749087080
:104A300008460078012806D100F064FDE0480069CE
:104A4000401CDF4908613EE05021642001F0D2FBA8
:104A5000FEF7C6FBDE480078DD4949780844DC49AA
:104A600089780844DA49C9780844D9490979084459
:104A7000D74949790844D64989790844D449C9793C
:104A80000844082808DA3C21632001F0B3FBCC4835
:104A90000069401CCA49086115E0CD48C078CC497E
:104AA0000979084401280BDCC748C078C649097950
:104AB0000844012804DCC2480069401CC049086160
:104AC00001E00EE000BF00BFBD480069042808D126
:104AD000C048006828B90020B94908610120BD49D3
:104AE0000860022C7DD1B648006906281AD2DFE89A
:104AF00000F0031A2D66B4C84121632001F07AFB4F
:104B0000B54890ED041BB0EE410AF0EE610A51EC9D
:104B1000100B01F0AFFFB1490860A9480069401CC3
:104B2000A7490861AEE0AA48C07801280DD1A8487D
:104B30000079012809D1A9480178322001F05AFBF7
:104B40009F480069401C9E4908619BE00420A449DD
:104B50000870A14890ED021BB0EE410AF0EE610A28
:104B60009FEDA01B53EC112B51EC100B02F044F9FC
:104B700014D2994890ED021BB0EE410AF0EE610AA2
:104B80009FED9A1B53EC112B51EC100B01F0FAFF27
:104B900004D292480178322001F02CFB6420FEF709
:104BA00049FF8A49087008460078012806D100F0BC
:104BB000A9FC83480069401C8149086162E086487D
:104BC00090ED021BB0EE410AF0EE610A9FED851BED
:104BD00053EC112B51EC100B01F0D4FF11D37E4894
:104BE00000E05DE090ED021BB0EE410AF0EE610ADC
:104BF0009FED7E1B53EC112B51EC100B02F0FCF8D7
:104C000002D20020764908707148007870494978CE
:104C100008446F49897808446D49C97808446C494B
:104C2000097908446A4949790844694989790844F5
:104C30006749C9790844082809DA4121632001F04D
:104C4000D9FA5F480069401C5D49086104E0634887
:104C50000178322001F0CEFA14E05D48C0785C495A
:104C60000979084401280BDC5748C078564909796E
:104C70000844012804DC52480069401C504908617E
:104C800000E000BF00BF4E480069052808D1514828
:104C9000006828B900204A49086101204D49086090
:104CA000032C6BD146480069052859D2DFE800F093
:104CB000031A2F4357004648C078454909790844EC
:104CC000434989780844424949790844042808D16D
:104CD0004121642001F08EFA39480069401C3849AE
:104CE00008613DE010213748FCF78BF905460821A3
:104CF0003448FCF786F9284440B90021084601F001
:104D000079FA2F480069401C2D49086128E050209D
:104D1000FFF7C8FC6420FEF78DFE2C49087008469A
:104D20000078012806D100F0EDFB25480069401C01
:104D30002349086114E041210B2001F05BFA24486B
:104D4000C07823490979084440B91D480069401CCE
:104D50001B4908611421632001F04CFA00E000BFF8
:104D600000BF17480069042808D11A48006828B90C
:104D7000002013490861012016490860042C7AD1EB
:104D80000F48006905281AD2DFE800F00334495DB6
:104D9000CB000F48C0780E49097908440C4989783E
:104DA00008440B4949790844042808D1412164206A
:104DB00001F020FA02480069401C01490861B1E095
:104DC0004C010020000C024010000020C500002013
:104DD00008000020B4000020800100208400002092
:104DE000BC0000200000000000001840000000008F
:104DF00000E075401021FE48FCF703F90546082144
:104E0000FB48FCF7FEF8284440B90021084601F0B1
:104E1000F1F9F8480069401CF649086182E0502029
:104E2000FEF776FC6420FEF705FEF349087008469D
:104E30000078012806D100F065FBEE480069401CAF
:104E4000EC4908616EE0ED4890ED021BB0EE410ABE
:104E5000F0EE610A9FEDEA1B53EC112B51EC100BA5
:104E600001F0CAFF16D2E54890ED021BB0EE410AF0
:104E7000F0EE610A00E063E09FEDE31B53EC112BC1
:104E800051EC100B01F07EFE04D241210B2001F009
:104E9000B1F923E0D94890ED021BB0EE410AF0EEE3
:104EA000610A9FEDD71B53EC112B51EC100B01F055
:104EB00069FE0FD3D14890ED021BB0EE410AF0EE2F
:104EC000610A9FEDD11B53EC112B51EC100B01F03B
:104ED00093FF03D23221642001F08CF9CC48007892
:104EE000CB4949780844CA4989780844C849C978EF
:104EF0000844C74909790844C54949790844C4495F
:104F000089790844C249C9790844082808DAB948A7
:104F10000069401CB74908614121632001F06AF92A
:104F200000E000BF00BFB3480069042808D1B948B9
:104F3000006828B90020AF4908610120B549086020
:104F4000052C7DD1AB480069082823D2DFE800F0AA
:104F500004233A9AAFCADEF7AD480078AC494978E5
:104F60000844AB4989780844A949C9780844A84944
:104F700009790844A64989790844A549C9790844AA
:104F8000A34949790844082804D19A480069401C7B
:104F900098490861D4E05021642001F02BF997482A
:104FA00090ED001BB0EE410AF0EE610A51EC100BDF
:104FB00001F060FD984908608E480069401C8D49E9
:104FC0000861BDE09448006801F0B1FD41EC190BA7
:104FD0008A4890ED001BB0EE410AF0EE610A53ECF6
:104FE000102B51EC190B01F03DFF41EC180B9FED1C
:104FF0008B0B53EC102B01F0FFFE1BD3864800688F
:1050000001F095FD41EC190B7C4890ED001BB0EED2
:10501000410AF0EE610A53EC102B51EC190B01F030
:1050200021FF41EC180B9FED7F0B53EC102B01F08F
:10503000A9FD26D2714890ED021BB0EE410A00E0B6
:105040008CE0F0EE610A9FED751B53EC112B51ECD7
:10505000100B01F0D1FE14D2684890ED021BB0EEA7
:10506000410AF0EE610A9FED711B53EC112B51ECDC
:10507000100B01F087FD04D25E480069401C5D49B9
:1050800008615DE06420FEF7D5FC5B4908700846C6
:10509000007801280AD100F035FA00210A2001F039
:1050A000A9F854480069401C5249086148E00021B1
:1050B000084601F09FF86420FEF762FB4B20FEF7E4
:1050C000B9FC4D49087008460078012802D05048C4
:1050D000007830B900F016FA46480069401C45498E
:1050E00008612DE05020FEF713FB4948C07848497D
:1050F00009790844012808DC3221632001F07AF89C
:105100003C480069401C3B49086119E04048C078B0
:105110003F490979084401280FDC4648C0784549D1
:1051200009790844012808DC4121632001F062F874
:1051300030480069401C2F49086101E0FFE700BFCB
:1051400000BF2C480069072808D13248006828B9F8
:1051500000202849086101202E490860062C46D10C
:1051600024480069082812D2DFE800F0041229ADB3
:10517000C2F6F4F32648C078012808D12448007903
:10518000012804D11B480069401C1A49086111E13B
:105190005021642001F02EF8184890ED001BB0EE6D
:1051A000410AF0EE610A51EC100B01F063FC1A4960
:1051B000086010480069401C0E490861FAE0164872
:1051C000006801F0B4FC41EC190B0C4890ED001B99
:1051D000B0EE410AF0EE610A53EC102B51EC190BC2
:1051E00001F040FE41EC180B9FED0C0B24E0EFE0CA
:1051F000000C02404C010020C5000020800100206E
:105200000000000000001440000000000030764064
:1052100008000020B40000208400002000000000EE
:105220000000084000000000000008C0000000006E
:10523000000049401000002053EC102B01F0DCFD71
:105240001BD36548006801F072FC41EC190B634800
:1052500090ED001BB0EE410AF0EE610A53EC102B0A
:1052600051EC190B01F0FEFD41EC180B1FED130B77
:1052700053EC102B01F086FC24D2584890ED021B11
:10528000B0EE410AF0EE610A1FED1C1B53EC112B2E
:1052900051EC100B01F0B0FD14D2504890ED021B00
:1052A000B0EE410AF0EE610A1FED201B53EC112B0A
:1052B00051EC100B01F066FC04D249480069401C17
:1052C0004749086176E09620FEF7B4FB454908702F
:1052D0000846007801280AD100F014F900210A20BC
:1052E00000F088FF3E480069401C3D49086161E0CC
:1052F0000021084600F07EFF6420FEF741FA4B20B3
:10530000FEF798FB3749087008460078012818D046
:105310003548007834494978084433498978084445
:105320003149C97808443049097908442E494979F6
:1053300008442D49897908442B49C979084408282B
:1053400006DA00F0DFF826480069401C24490861AD
:1053500030E02EE015E0FFE72821632000F04AFF4F
:105360002148C078204909790844012808DC2D210A
:10537000632000F03FFF1A480069401C184908618B
:1053800018E01948C07818490979084401280FDC49
:105390001648C078154909790844012808DC4121DC
:1053A000632000F027FF0E480069401C0C4908618B
:1053B00000E000BF00BF0A480069072808D10C4878
:1053C000006828B9002006490861012008490860E2
:1053D000BDEC048B70BD0000840000208001002023
:1053E0004C010020C5000020080000201000002013
:1053F000B40000200020064908600649C1F8A80250
:105400000349091D08600349C1F890027047000074
:10541000AC0241420000414270B505460C46364898
:105420000068A8423EDA0021084600F0E3FE324858
:105430000068401C30490860682C22D06C2C10D0C9
:10544000702C2ED1086800EBD0714910A0EB4101FF
:10545000012902D1FFF7CEFF02E0C820FEF758F97C
:105460001FE02549086800EBD0714910A0EB41010D
:10547000012902D1FFF7BEFF02E0282000F06AFDFB
:105480000FE01D480068052190FBF1F201FB1200BE
:10549000012802D1FFF7AEFF02E0782000F05AFDAC
:1054A00000BF28E0682C18D06C2C09D0702C21D1BA
:1054B0005020FEF72DF90021084600F09BFE19E070
:1054C0000E480078062804D10021022000F092FE48
:1054D00002E04120FDF72AFF0CE00021012000F04E
:1054E00089FE00200449086005480078401C0449F2
:1054F000087000BF00BF70BD88000020BC00002005
:10550000C40000200020024908700249086070476A
:10551000C5000020B80000200020024908700249A0
:1055200008607047C6000020C000002070B5054626
:105530000C46012C55D19E48C06930B1012811D0CC
:10554000022823D003283ED13CE09A48C07940B9D4
:105550004121632000F04EFE9548C069401C9449EB
:10556000C86130E09348007878B99248C078914992
:1055700009790844022808D10021084600F03AFEC3
:105580008B48C069401C8A49C8611CE06C2D03D15E
:105590007820FEF7BDF804E0722D02D17820FFF7E5
:1055A00081F88448C078834909790844012808DCD7
:1055B00000210A2000F01EFE7D48C069401C7C4985
:1055C000C86100E000BF00BF7B48006848B9784868
:1055D000C069032805D1012077490860002074497B
:1055E000C861022C68D17248C069062856D2DFE82B
:1055F00000F003121F2D3B506E48C07950B96D4822
:105600000078012806D10021084600F0F3FD0120B2
:105610006749C86142E07820FFF744F86548C078E0
:10562000644909790844022801D16149C86135E01B
:105630007820FFF737F85F48C0785E490979084459
:10564000012802DC03205A49C86127E07820FFF7CF
:1056500029F85848C078574909790844022802D1E6
:1056600004205349C86119E07820FFF71BF851481E
:10567000C078504909790844012809DC4F48C078AE
:105680004E4909790844022802D105204849C861D9
:1056900004E04121632000F0ADFD00BF00BF46489B
:1056A000006848B94248C069052805D1012042492F
:1056B000086000203E49C861032C78D13C48C0698D
:1056C000062866D2DFE800F0032D3E4854643948CE
:1056D000C078384909790844364949790844354938
:1056E000897808443349097808443249497808449C
:1056F0003049897908442F49C979084408280FD1CD
:105700002E48C0782D4909790844012808DC2D214C
:10571000632000F06FFD2648C069401C2449C86121
:1057200037E01420FEF786F925490870084600780E
:10573000012806D1FFF7E6FE1D48C069401C1C4940
:10574000C86126E00021084600F054FD1848C069F1
:10575000401C1749C8611CE07820FDF7D9FF1548A7
:10576000007820B91248C069401C1149C86110E096
:105770007820FDF7CDFF0F4800790E49497908449C
:10578000012804DC0A48C069401C0949C86100E0DE
:1057900000BF00BF0848006848B90548C06905282F
:1057A00005D101200449086000200149C86170BD8D
:1057B0004C01002008000020B40000201000002050
:1057C000C500002070B504460D46012D7DD1FE4870
:1057D000006A082822D2DFE800F004223748607906
:1057E000959EFA48007858B96C2C09D12D21632078
:1057F00000F000FDF448006A401CF34908620DE027
:10580000F248C07950B9722C08D12D21632000F0E4
:10581000F1FCED48006A401CEB4908627CE04FF463
:105820008071EB48FBF7EDFB20B14021E948FBF725
:10583000E8FB40B900210A2000F0DCFCE248006AE5
:10584000401CE149086267E01420FEF7F3F8E249E2
:10585000087008460078012806D1FFF753FEDA48A1
:10586000006A401CD849086256E06C2C09D100211E
:10587000084600F0BFFCD448006A401CD2490862C8
:105880000AE0722C08D10021084600F0B3FCCE4893
:10589000006A401CCC4908623EE06C2C03D17820A1
:1058A000FDF736FF04E0722C02D17820FEF7FAFEF5
:1058B000C648C078C54909790844022804D1C248BD
:1058C000006A401CC049086226E033E06C2C03D11A
:1058D0007820FDF71DFF04E0722C02D17820FEF73E
:1058E000E1FEBA48C078B94909790844012808DCC2
:1058F0003221632000F07EFCB348006A401CB249AC
:10590000086209E0FBF7C6FC20B1AF48006A401C02
:10591000AD49086200E000BF00BFB048006848B968
:10592000A948006A072805D10120AC490860002079
:10593000A5490862022D6FD1A348006A062813D238
:10594000DFE800F00313364E6B7FA04800789F49D4
:10595000C979084440B93221632000F04BFC9A48D1
:10596000006A401C984908626CE04FF480719848C6
:10597000FBF747FB58B96C2C09D10021084600F011
:1059800039FC9148006A401C8F4908620FE04021B1
:105990009048FBF736FB50B9722C08D1002108461D
:1059A00000F028FC8848006A401C8749086249E0EA
:1059B0006C2C03D17820FDF7ABFE04E0722C02D1F1
:1059C0007820FEF76FFE8148C07880490979084445
:1059D000022804D17C48006A401C7B49086231E0FF
:1059E0006C2C03D17820FDF793FE04E0722C02D1D9
:1059F0007820FEF757FE7548C07874490979084445
:105A0000012808DC4121632000F0F4FB6E48006AA5
:105A1000401C6D49086215E022E06C48C0786B4973
:105A20000979084401280BDC6D48C0786C49097974
:105A30000844012804DC6448006A401C624908628A
:105A400000E000BF00BF6548006848B95E48006AD2
:105A5000052805D101206149086000205A490862E3
:105A6000032D71D15848006A072836D2DFE800F0CC
:105A700004364E667F97BD005448C0785349097973
:105A8000084452490978084478B9504840780128B8
:105A90000BD16C2C09D10021084600F0ABFB4A4821
:105AA000006A401C4849086217E04848C0784749E6
:105AB000097908444549C979084470B9434880794F
:105AC00001280AD1722C08D10021084600F092FB6F
:105AD0003D48006A401C3C4908628BE06C2C03D1B5
